:1004AC0043151501B9030808000000800000008006
:1004BC0000808000000080800080008080C0C0C070
:1004CC00C0DCC0A6CAF0402000602000802000A044
:1004DC002000C02000E020000040002040004040F0
:1004EC0000604000804000A04000C04000E04000A0
:1004FC00006000206000406000606000806000A030
:10050C006000C06000E0600000800020800040803F
:10051C0000608000808000A08000C08000E080002F
:10052C0000A00020A00040A00060A00080A000A0BF
:10053C00A000C0A000E0A00000C00020C00040C08F
:10054C000060C00080C000A0C000C0C000E0C000BF
:10055C0000E00020E00040E00060E00080E000A04F
:10056C00E000C0E000E0E00000004020004040005F
:10057C0040600040800040A00040C00040E00040CF
:10058C00002040202040402040602040802040A09F
:10059C002040C02040E020400040402040404040EF
:1005AC0040604040804040A04040C04040E040405F
:1005BC00006040206040406040606040806040A02F
:1005CC006040C06040E0604000804020804040803F
:1005DC0040608040808040A08040C08040E08040EF
:1005EC0000A04020A04040A04060A04080A040A0BF
:1005FC00A040C0A040E0A04000C04020C04040C08F
:10060C004060C04080C040A0C040C0C040E0C0407E
:10061C0000E04020E04040E04060E04080E040A04E
:10062C00E040C0E040E0E04000008020008040005E
:10063C0080600080800080A00080C00080E000808E
:10064C00002080202080402080602080802080A09E
:10065C002080C02080E020800040802040804040EE
:10066C0080604080804080A04080C04080E040801E
:10067C00006080206080406080606080806080A02E
:10068C006080C06080E0608000808020808040803E
:10069C0080608080808080A08080C08080E08080AE
:1006AC0000A08020A08040A08060A08080A080A0BE
:1006BC00A080C0A080E0A08000C08020C08040C08E
:1006CC008060C08080C080A0C080C0C080E0C0803E
:1006DC0000E08020E08040E08060E08080E080A04E
:1006EC00E080C0E080E0E0800000C02000C040005E
:1006FC00C06000C08000C0A000C0C000C0E000C04E
:10070C000020C02020C04020C06020C08020C0A09D
:10071C0020C0C020C0E020C00040C02040C04040ED
:10072C00C06040C08040C0A040C0C040C0E040C0DD
:10073C000060C02060C04060C06060C08060C0A02D
:10074C0060C0C060C0E060C00080C02080C040803D
:10075C00C06080C08080C0A080C0C080C0E080C06D
:10076C0000A0C020A0C040A0C060A0C080A0C0A0BD
:10077C00A0C0C0A0C0E0A0C000C0C020C0C040C08D
:10078C00C060C0C080C0C0A0C0C0FFFBF0A0A0A4CF
:10079C00808080FF000000FF00FFFF000000FFFFD3
:1007AC0000FF00FFFFFFFFFF01014600BF01047FB8
:1007BC00BF010E0001037F666501037FBF010B00C3
:1007CC0001047F5C6566A50103DA01090001047F61
:1007DC00774A4A5CE40103DA01090001047F77657A
:1007EC00777FF600F7F7AF01070001047F6F010375
:1007FC007FF6EF8E667F7F0107007F6F5C525C7F18
:10080C007FF6EF8E8E967F7F0107007F66655366BD
:10081C007FF6EF01038E967F7F01070001037F5265
:10082C007FF6EF01048E9E7F7F0108007FECDAEDEE
:10083C00EF01058EAF7F7F0108007FE4DA00010530
:10084C008E667F7F010A00E4DAE49F8E8E9E677FBE
:10085C007F010C00DAE401067F010F0001057F0126
:03086C005B00002E
:10086F0075086475092DE4FBFDFF1200B87BFF7A54
:10087F000479ACAD09AF081200687F271200D6507B
:10088F000C0508E508C394DB40037508DB7F2512D0
:10089F0000D6500B1508E508940150037508017F29
:1008AF00261200D6500B1509E5099401500375095E
:1008BF00017F281200D6500C0509E509C3946B403F
:1008CF000375096B7F017E007D007C00120059804B
:0108DF009C7C
:1000030090FE00E030E7FC547FF0A3E0FF22C20043
:100013002290FE00E0A2E722CECFCE22CCCFCCCDE1
:10002300CECD22BBFF03E49322BB0102E022BB003F
:1000330002E722E322120014501812000389828A75
:1000430083EFBB0103F08009BB0003F78003C38088
:1000530001D322EDFE2212018D90FEE0E070FA2220
:10006300740002FFFC740102FFFC740202FFFC74C3
:100073000302FFFC740402FFFC740502FFFC740618
:1000830002FFFC740702FFFC740802FFFC74090200
:10009300FFFC740A02FFFC740B02FFFC740C02FFEA
:1000A300FC740D02FFFC740E02FFFC740F02FFFCD4
:1000B300741002FFFC741102FFFC741902FFFC743C
:1000C3001A02FFFC741B02FFFC741C02FFFC741D6C
:1000D30002FFFC741E02FFFC741F02FFFC7420026B
:1000E300FFFC742102FFFC742202FFFC742302FF55
:1000F300FC742402FFFC742502FFFC742602FFFC3F
:10010300742702FFFC742802FFFC742902FFFC74AD
:100113002A02FFFC742B02FFFC742C02FFFC742DDB
:1001230002FFFC742E02FFFC742F02FFFC743002EA
:09013300FFFC743102FFFC743280
:10013C0002FFFC743302FFFC743402FFFC743502C2
:10014C00FFFC743602FFFC743702FFFC743802FFAC
:10015C00FC743902FFFC743A02FFFC743B02FFFC96
:10016C00743C02FFFC743F9001A602FFFC74410238
:10017C00FFFC744202FFFC744302FFFC744402FF58
:10018C00FC744502FFFC744602FFFC744702FFFC42
:10019C00744802FFFC746302FFFC302E3739730085
:1001AC000000000000AA00AA0000AAAAAA0000AA47
:1001BC0000AAAA5500AAAAAA5555555555FF55FF90
:1001CC005555FFFFFF5555FF55FFFFFF55FFFFFF2F
:1001DC000000001414142020202C2C2C3838384506
:1001EC004545515151616161717171828282929266
:1001FC0092A2A2A2B6B6B6CBCBCBE3E3E3FFFFFF52
:10020C000000FF4100FF7D00FFBE00FFFF00FFFF6D
:10021C0000BEFF007DFF0041FF0000FF4100FF7D9D
:10022C0000FFBE00FFFF00BEFF007DFF0041FF008E
:10023C0000FF0000FF4100FF7D00FFBE00FFFF003C
:10024C00BEFF007DFF0041FF7D7DFF9E7DFFBE7DDB
:10025C00FFDF7DFFFF7DFFFF7DDFFF7DBEFF7D9E0E
:10026C00FF7D7DFF9E7DFFBE7DFFDF7DFFFF7DDF80
:10027C00FF7DBEFF7D9EFF7D7DFF7D7DFF9E7DFF13
:10028C00BE7DFFDF7DFFFF7DDFFF7DBEFF7D9EFF1F
:10029C00B6B6FFC7B6FFDBB6FFEBB6FFFFB6FFFF88
:1002AC00B6EBFFB6DBFFB6C7FFB6B6FFC7B6FFDBD4
:1002BC00B6FFEBB6FFFFB6EBFFB6DBFFB6C7FFB67C
:1002CC00B6DFB6B6FFC7B6FFDBB6FFEBB6FFFFB6C1
:1002DC00EBFFB6DBFFB6C7FF0000711C00713800E6
:1002EC007155007171007171005571003871001CED
:1002FC00710000711C00713800715500717100554E
:10030C0071003871001C710000710000711C0071CB
:10031C0038007155007171005571003871001C71F5
:10032C00383871453871553871613871713871715F
:10033C003861713855713845713838714538715597
:10034C00387161387171386171385571384571384F
:10035C003871383871453871553871613871713868
:10036C0061713855713845715151715951716151E3
:10037C007169517171517171516971516171515939
:10038C007151517159517161517169517171516949
:10039C007151617151597151517151517159517161
:1003AC006151716951717151697151617151597119
:1003BC00000041100041200041300041410041410A
:1003CC00003041002041001041000041100041204C
:1003DC0000413000414100304100204100104100FB
:1003EC00004100004110004120004130004141001B
:1003FC003041002041001041202041282041302074
:10040C0041382041412041412038412030412028B1
:10041C0041202041282041302041382041412038C2
:10042C0041203041202841202041202041282041DA
:10043C003020413820414120384120304120284192
:10044C002C2C41302C41342C413C2C41412C414131
:10045C002C3C412C34412C30412C2C41302C41343F
:10046C002C413C2C41412C3C412C34412C30412C16
:10047C002C412C2C41302C41342C413C2C41412C16
:10048C003C412C34412C30410000000000000000A5
:10049C000000000000000000000000000000000050
:04FFFC00F1FE2200F0
:030000000208E013
:1008E00078FFE4F6D8FD80031209089001007F002C
:1008F0007EFEE4F0A3DFFCDEFA78007F00E4F2087D
:08090000DFFC75812002086F85
:1009080010000B120003BF0D027F0A02016CAF0A30
:0109180022BC
:00000001FF
